:0400000028EF00F0F5
:0600080040828EED02F0C3
:100018004080D8CF60F0E8CF61F0E0CF62F0D9CF70
:1000280063F0DACF64F0F0B0F0A602D050EC02F042
:1000380064C0DAFF63C0D9FF62C0E0FF61C0E8FFB7
:1000480060C0D8FF4090100022EF02F0720E656F7A
:100058006F51BBEC01F0000E7E6F7051D8A407D031
:100068007E51720FD96EDA6ADF50FF0A05D07E51D1
:10007800720FD96EDA6ADF50716F010E7117715104
:100088007A6F7B6B6CC0D9FF6DC0DAFF7AC0DFFF77
:100098006CC0D9FF6DC0DAFF6E51DF127051D8A461
:1000A80007D07E51720FD96EDA6ADF50FF0A05D089
:1000B8007E51720FD96EDA6ADF50716F010E7117B7
:1000C80071517C6F7D6B6CC0D9FF6DC0DAFF7CC04D
:1000D800DFFF7E2B070E7E65C0D712002A0E1D6E2D
:1000E8002750DEEC01F0000E366E2850D8A407D059
:1000F80036502A0FD96EDA6ADF50FF0A05D036501B
:100108002A0FD96EDA6ADF50296E010E2916295096
:10011800326E336A24C0D9FF25C0DAFF32C0DFFF50
:1001280024C0D9FF25C0DAFF2650DF122850D8A4F2
:1001380007D036502A0FD96EDA6ADF50FF0A05D089
:1001480036502A0FD96EDA6ADF50296E010E291649
:100158002950346E356A24C0D9FF25C0DAFF34C06F
:10016800DFFF362A070E3664C0D712000E0E016E66
:100178000B5000EC02F0000E1A6E0C50D8A407D0F9
:100188001A500E0FD96EDA6ADF50FF0A05D01A50DE
:100198000E0FD96EDA6ADF500D6E010E0D160D5076
:1001A800166E176A08C0D9FF09C0DAFF16C0DFFF4C
:1001B80008C0D9FF09C0DAFF0A50DF120C50D8A4D2
:1001C80007D01A500E0FD96EDA6ADF50FF0A05D031
:1001D8001A500E0FD96EDA6ADF500D6E010E0D1629
:1001E8000D50186E196A08C0D9FF09C0DAFF18C087
:1001F800DFFF1A2A070E1A64C0D71200010E8B6F90
:10020800000E8C6F7FC06CF080C06DF081C06EF006
:100218008BC06FF0000E706F2AEC00F08B518B25AD
:100228008B13000E876F000E886F000E896F000E0B
:100238008A6F0FD0070E0001836F7D0EE82EFED760
:10024800832FFCD7010E00018727000E88238923FE
:100258008A2382C083F0846B856B866B8351875DAC
:10026800845188598551895986518A59D8A0E2D72D
:100278008C2B070E8C65C6D7120066EC02F0080EB0
:1002880000018F19D8A4FBD78D808D82F298F09643
:10029800000E8E6F000E8D6F8B0E7F6F0F0E806FAE
:1002A800040E816FFA0E826F7EEC01F08D4B8E2B5F
:1002B8008EBFF2D78E5104E1050E8D5DD8A0ECD724
:1002C8008B0E7F6F0F0E806F040E816F7BEC02F038
:1002D8008D928B0E7F6F0F0E806F020E816FF40E62
:1002E800826F02EC01F08D90000E8F6FF288F0861D
:1002F8008D82C5D7030E8B6F000E8C6F7FC06CF09C
:1003080080C06DF081C06EF08BC06FF0010E706F11
:100318002AEC00F08B1F000E876F000E886F000E0E
:10032800896F000E8A6F0FD0070E0001836F7D0E54
:10033800E82EFED7832FFCD7010E00018727000E79
:10034800882389238A2382C083F0846B856B866B1C
:100358008351875D845188598551895986518A59B5
:10036800D8A0E2D78C2B010E8C65C8D71200696F14
:10037800000E00016B6F070E6A6F6951D8A405D093
:10038800000E686F000E676F07D069C066F0010E37
:1003980066176651676F686B65516A25D96EDA6AA8
:1003A80067C0DFFFD89069336A07D8A06B076BBFB7
:1003B8001200E3D7216E000E236E070E226E215025
:1003C800D8A405D0000E206E000E1F6E07D021C0E5
:1003D8001EF0010E1E161E501F6E206A1D5022248C
:1003E800D96EDA6A1FC0DFFFD89021322206D8A062
:1003F800230623BE1200E3D7056E000E076E070E14
:10040800066E0550D8A405D0000E046E000E036ECB
:1004180007D005C002F0010E02160250036E046AEE
:1004280001500624D96EDA6A03C0DFFFD89005327E
:100438000606D8A0070607BE1200E3D73C0EF66EE4
:10044800050EF76E000EF86E00EE37F010EE09F0AC
:100458000900F5CFEEFFE550E150FAE100018F6B9E
:1004680040904092000141EF01F0080E00018F61B9
:1004780001D08F2B8B0E086E0F0E096E020E0A6EBE
:100488008F51370FD96EDA6ADF500B6E010E0C6E82
:10049800BAEC00F0F292120000018F51D8A48F0735
:1004A8008B0E246E0F0E256E020E266E8F51370F9F
:1004B800D96EDA6ADF50276E010E286E72EC00F0F2
:1004C800F0901200010E936E000E946E000E956E61
:1004D800969096928D908D92F292F090F18CF19A7E
:1004E800F288F086F09CD08EF28EF28C1200000E0C
:1004F800826F7FC06CF080C06DF081C06EF0000E1E
:100508006F6F010E706F2AEC00F0822B070E826568
:10051800F0D712000600D9CF1BF0DACF1CF0F2B2E8
:10052800F2A802D039EC02F01CC0DAFF1BC0D9FFD8
:0D053800409211000080C0E0F0F8FCFEFFD2
:020000040030CA
:0E000000000C091EFF8180FF0FC00FE00F40B3
:00000001FF
